:10000000000000308A00042803081F398300FF30F5
:10001000A00083161F149F141F159F1107309C000A
:1000200083138312A1017830F80004389200F9306C
:1000300083169200831220112008831687008312F2
:1000400007110C309700A301A2012308F900220830
:10005000F800F90CF80CF90CF80CF90C780895007C
:10006000F90C790C3039F7001708CF39770497006D
:100070008C1C65288C10A10A21087D3C031D652875
:10008000A1016430A2070318A30A2308023C031845
:100090005228FF3A031D50282208E83C0318522832
:1000A000A301A2012308F9002208F800F90CF80CBA
:1000B000F90CF80CF90C78089500F90C790C30392A
:0E00C000F7001708CF39770497003828662814
:02400E003B373E
:00000001FF
;PIC16F877A
;CRC=33EA  CREATED="16-jan-21 18:16"
