:10000000000000308A00042803081F398300FF30F5
:10001000A00083161F149F141F159F1107309C000A
:1000200083138312A4017830F80004389200F93069
:1000300083169200853083129000201120088316C9
:100040008700831207110C309700A0142008831634
:10005000870083129D0105309D00A601A501260899
:10006000F9002508F800F90CF80CF90CF80CF90C5B
:1000700078089500F90C790C3039F7001708CF395A
:100080007704970023148C1C70288C10A40A240871
:100090007D3C031D7028A4016430A5070318A60A3F
:1000A0002608023C03185D28FF3A031D5B2825083B
:1000B000E83C03185D28A601A5012608F9002508DB
:1000C000F800F90CF80CF90CF80CF90C780895000C
:1000D000F90C790C3039F7001708CF3977049700FD
:1000E0000D1CA028231C7F281B08A100A014200899
:1000F0008316870083129D0104309D008A28210801
:100100001B02A200A01420088316870083129D0101
:1001100005309D000D10003023180130013AF80021
:1001200023107818231422087D3C03189C2883167A
:10013000081083120814A0288316081083120810D0
:040140004328A12887
:02400E003B373E
:00000001FF
;PIC16F877A
;CRC=E452  CREATED="16-jan-21 20:21"
