:10000000000000308A004128FF00030E8301A10098
:100010000A08A0008A010408A2007708A300780853
:10002000A4007908A5007A08A600831383128B1E0A
:100030001B280B192C28220884002308F700240809
:10004000F8002508F9002608FA0020088A00210E89
:100050008300FF0E7F0E09008A110A122F280B1150
:100060003D308100A70A2708C73C03183D28A70197
:10007000831606100130831286060B118A110A12AC
:100080001B2803081F398300A70183161F149F1420
:100090001F159F1107309C0083130108C0390738D2
:1000A00081003D30831281000B118B16C0308B0410
:0C00B00083160610831206105C285D28E1
:02400E003A373F
:00000001FF
;PIC16F877A
;CRC=7CA6  CREATED="11-dez-20 08:51"
