:0200000047288F
:10000800FF00030E8301A5000A08A4008A010B1D46
:100018001328A00A0319A10A063081000B1124082D
:0C0028008A00250E8300FF0E7F0E0900E9
:0E0034008312031323088A00220882000800AA
:100042001A208A110A128000840AA20A0319A30A3A
:08005200F003031D2128080042
:10005A0083308316031381008B170B178B16063018
:0E006A0083128100831686138312861308000A
:10007800FF308316031385007F308600FF3087002A
:06008800FF3088000800B3
:10008E0083120313A001A1013C202D202108033A65
:10009E00031D5328E8302006031D5928803086069C
:0800AE00A001A1014D285A2810
:02400E004A2F37
:00000001FF
